{
  "contractName": "Blood",
  "abi": [
    {
      "inputs": [],
      "payable": false,
      "stateMutability": "nonpayable",
      "type": "constructor"
    },
    {
      "anonymous": false,
      "inputs": [
        {
          "indexed": false,
          "internalType": "uint256",
          "name": "id",
          "type": "uint256"
        },
        {
          "indexed": false,
          "internalType": "bool",
          "name": "used",
          "type": "bool"
        },
        {
          "indexed": false,
          "internalType": "bool",
          "name": "expired",
          "type": "bool"
        },
        {
          "indexed": false,
          "internalType": "uint256",
          "name": "donation_date",
          "type": "uint256"
        },
        {
          "indexed": false,
          "internalType": "address payable",
          "name": "donor",
          "type": "address"
        },
        {
          "indexed": false,
          "internalType": "address payable",
          "name": "bank",
          "type": "address"
        },
        {
          "indexed": false,
          "internalType": "string",
          "name": "blood_group",
          "type": "string"
        },
        {
          "indexed": false,
          "internalType": "uint256",
          "name": "expiry",
          "type": "uint256"
        },
        {
          "indexed": false,
          "internalType": "string",
          "name": "owner_name",
          "type": "string"
        },
        {
          "indexed": false,
          "internalType": "address payable",
          "name": "owner",
          "type": "address"
        },
        {
          "indexed": false,
          "internalType": "string",
          "name": "city",
          "type": "string"
        }
      ],
      "name": "BagCreated",
      "type": "event"
    },
    {
      "anonymous": false,
      "inputs": [
        {
          "indexed": false,
          "internalType": "uint256[]",
          "name": "array",
          "type": "uint256[]"
        }
      ],
      "name": "arr",
      "type": "event"
    },
    {
      "anonymous": false,
      "inputs": [
        {
          "indexed": false,
          "internalType": "uint256",
          "name": "id",
          "type": "uint256"
        },
        {
          "indexed": false,
          "internalType": "bool",
          "name": "used",
          "type": "bool"
        },
        {
          "indexed": false,
          "internalType": "bool",
          "name": "expired",
          "type": "bool"
        },
        {
          "indexed": false,
          "internalType": "uint256",
          "name": "donation_date",
          "type": "uint256"
        },
        {
          "indexed": false,
          "internalType": "address payable",
          "name": "donor",
          "type": "address"
        },
        {
          "indexed": false,
          "internalType": "address payable",
          "name": "bank",
          "type": "address"
        },
        {
          "indexed": false,
          "internalType": "string",
          "name": "blood_group",
          "type": "string"
        },
        {
          "indexed": false,
          "internalType": "uint256",
          "name": "expiry",
          "type": "uint256"
        },
        {
          "indexed": false,
          "internalType": "string",
          "name": "owner_name",
          "type": "string"
        },
        {
          "indexed": false,
          "internalType": "address payable",
          "name": "owner",
          "type": "address"
        },
        {
          "indexed": false,
          "internalType": "string",
          "name": "city",
          "type": "string"
        }
      ],
      "name": "bagPurchased",
      "type": "event"
    },
    {
      "anonymous": false,
      "inputs": [
        {
          "indexed": false,
          "internalType": "uint256",
          "name": "id",
          "type": "uint256"
        },
        {
          "indexed": false,
          "internalType": "bool",
          "name": "used",
          "type": "bool"
        },
        {
          "indexed": false,
          "internalType": "bool",
          "name": "expired",
          "type": "bool"
        },
        {
          "indexed": false,
          "internalType": "uint256",
          "name": "donation_date",
          "type": "uint256"
        },
        {
          "indexed": false,
          "internalType": "address payable",
          "name": "donor",
          "type": "address"
        },
        {
          "indexed": false,
          "internalType": "address payable",
          "name": "bank",
          "type": "address"
        },
        {
          "indexed": false,
          "internalType": "string",
          "name": "blood_group",
          "type": "string"
        },
        {
          "indexed": false,
          "internalType": "uint256",
          "name": "expiry",
          "type": "uint256"
        },
        {
          "indexed": false,
          "internalType": "string",
          "name": "owner_name",
          "type": "string"
        },
        {
          "indexed": false,
          "internalType": "address payable",
          "name": "owner",
          "type": "address"
        },
        {
          "indexed": false,
          "internalType": "string",
          "name": "city",
          "type": "string"
        }
      ],
      "name": "expBag",
      "type": "event"
    },
    {
      "anonymous": false,
      "inputs": [
        {
          "indexed": false,
          "internalType": "string",
          "name": "message",
          "type": "string"
        }
      ],
      "name": "message",
      "type": "event"
    },
    {
      "anonymous": false,
      "inputs": [
        {
          "indexed": false,
          "internalType": "string",
          "name": "hospital_name",
          "type": "string"
        },
        {
          "indexed": false,
          "internalType": "uint256",
          "name": "hospital_number",
          "type": "uint256"
        },
        {
          "indexed": false,
          "internalType": "string",
          "name": "newuser_name",
          "type": "string"
        },
        {
          "indexed": false,
          "internalType": "string",
          "name": "date",
          "type": "string"
        },
        {
          "indexed": false,
          "internalType": "uint256",
          "name": "newuserNumber",
          "type": "uint256"
        },
        {
          "indexed": false,
          "internalType": "string",
          "name": "newuser_email",
          "type": "string"
        },
        {
          "indexed": false,
          "internalType": "string",
          "name": "amountBlood",
          "type": "string"
        },
        {
          "indexed": false,
          "internalType": "string",
          "name": "city",
          "type": "string"
        }
      ],
      "name": "userAccepted",
      "type": "event"
    },
    {
      "constant": true,
      "inputs": [],
      "name": "admin",
      "outputs": [
        {
          "internalType": "address payable",
          "name": "",
          "type": "address"
        }
      ],
      "payable": false,
      "stateMutability": "view",
      "type": "function"
    },
    {
      "constant": true,
      "inputs": [],
      "name": "bagCount",
      "outputs": [
        {
          "internalType": "uint256",
          "name": "",
          "type": "uint256"
        }
      ],
      "payable": false,
      "stateMutability": "view",
      "type": "function"
    },
    {
      "constant": true,
      "inputs": [
        {
          "internalType": "uint256",
          "name": "",
          "type": "uint256"
        }
      ],
      "name": "bloodbags",
      "outputs": [
        {
          "internalType": "uint256",
          "name": "id",
          "type": "uint256"
        },
        {
          "internalType": "bool",
          "name": "used",
          "type": "bool"
        },
        {
          "internalType": "bool",
          "name": "expired",
          "type": "bool"
        },
        {
          "internalType": "uint256",
          "name": "donation_date",
          "type": "uint256"
        },
        {
          "internalType": "address payable",
          "name": "donor",
          "type": "address"
        },
        {
          "internalType": "address payable",
          "name": "bank",
          "type": "address"
        },
        {
          "internalType": "string",
          "name": "blood_group",
          "type": "string"
        },
        {
          "internalType": "uint256",
          "name": "expiry",
          "type": "uint256"
        },
        {
          "internalType": "string",
          "name": "owner_name",
          "type": "string"
        },
        {
          "internalType": "address payable",
          "name": "owner",
          "type": "address"
        },
        {
          "internalType": "string",
          "name": "city",
          "type": "string"
        }
      ],
      "payable": false,
      "stateMutability": "view",
      "type": "function"
    },
    {
      "constant": true,
      "inputs": [
        {
          "internalType": "address",
          "name": "",
          "type": "address"
        }
      ],
      "name": "donorD1",
      "outputs": [
        {
          "internalType": "string",
          "name": "hospital_name",
          "type": "string"
        },
        {
          "internalType": "uint256",
          "name": "hospital_number",
          "type": "uint256"
        },
        {
          "internalType": "string",
          "name": "newuser_name",
          "type": "string"
        },
        {
          "internalType": "string",
          "name": "date",
          "type": "string"
        },
        {
          "internalType": "uint256",
          "name": "newuserNumber",
          "type": "uint256"
        },
        {
          "internalType": "string",
          "name": "newuser_email",
          "type": "string"
        },
        {
          "internalType": "string",
          "name": "amountBlood",
          "type": "string"
        },
        {
          "internalType": "string",
          "name": "city",
          "type": "string"
        }
      ],
      "payable": false,
      "stateMutability": "view",
      "type": "function"
    },
    {
      "constant": true,
      "inputs": [
        {
          "internalType": "address",
          "name": "",
          "type": "address"
        },
        {
          "internalType": "uint256",
          "name": "",
          "type": "uint256"
        }
      ],
      "name": "donors",
      "outputs": [
        {
          "internalType": "uint256",
          "name": "",
          "type": "uint256"
        }
      ],
      "payable": false,
      "stateMutability": "view",
      "type": "function"
    },
    {
      "constant": true,
      "inputs": [],
      "name": "hospi",
      "outputs": [
        {
          "internalType": "address payable",
          "name": "",
          "type": "address"
        }
      ],
      "payable": false,
      "stateMutability": "view",
      "type": "function"
    },
    {
      "constant": true,
      "inputs": [
        {
          "internalType": "address",
          "name": "",
          "type": "address"
        },
        {
          "internalType": "uint256",
          "name": "",
          "type": "uint256"
        }
      ],
      "name": "hospitals",
      "outputs": [
        {
          "internalType": "uint256",
          "name": "",
          "type": "uint256"
        }
      ],
      "payable": false,
      "stateMutability": "view",
      "type": "function"
    },
    {
      "constant": true,
      "inputs": [],
      "name": "name",
      "outputs": [
        {
          "internalType": "string",
          "name": "",
          "type": "string"
        }
      ],
      "payable": false,
      "stateMutability": "view",
      "type": "function"
    },
    {
      "constant": true,
      "inputs": [
        {
          "internalType": "address",
          "name": "",
          "type": "address"
        },
        {
          "internalType": "uint256",
          "name": "",
          "type": "uint256"
        }
      ],
      "name": "notification",
      "outputs": [
        {
          "internalType": "uint256",
          "name": "",
          "type": "uint256"
        }
      ],
      "payable": false,
      "stateMutability": "view",
      "type": "function"
    },
    {
      "constant": true,
      "inputs": [],
      "name": "userCount",
      "outputs": [
        {
          "internalType": "uint256",
          "name": "",
          "type": "uint256"
        }
      ],
      "payable": false,
      "stateMutability": "view",
      "type": "function"
    },
    {
      "constant": true,
      "inputs": [
        {
          "internalType": "uint256",
          "name": "",
          "type": "uint256"
        }
      ],
      "name": "users",
      "outputs": [
        {
          "internalType": "uint256",
          "name": "id",
          "type": "uint256"
        },
        {
          "internalType": "uint256",
          "name": "user_type",
          "type": "uint256"
        },
        {
          "internalType": "string",
          "name": "user",
          "type": "string"
        },
        {
          "internalType": "address payable",
          "name": "user_address",
          "type": "address"
        },
        {
          "internalType": "string",
          "name": "name",
          "type": "string"
        },
        {
          "internalType": "string",
          "name": "number",
          "type": "string"
        },
        {
          "internalType": "string",
          "name": "blood_group",
          "type": "string"
        },
        {
          "internalType": "string",
          "name": "city",
          "type": "string"
        }
      ],
      "payable": false,
      "stateMutability": "view",
      "type": "function"
    },
    {
      "constant": true,
      "inputs": [
        {
          "internalType": "address",
          "name": "",
          "type": "address"
        }
      ],
      "name": "usertype",
      "outputs": [
        {
          "internalType": "uint256",
          "name": "id",
          "type": "uint256"
        },
        {
          "internalType": "uint256",
          "name": "user_type",
          "type": "uint256"
        },
        {
          "internalType": "string",
          "name": "user",
          "type": "string"
        },
        {
          "internalType": "address payable",
          "name": "user_address",
          "type": "address"
        },
        {
          "internalType": "string",
          "name": "name",
          "type": "string"
        },
        {
          "internalType": "string",
          "name": "number",
          "type": "string"
        },
        {
          "internalType": "string",
          "name": "blood_group",
          "type": "string"
        },
        {
          "internalType": "string",
          "name": "city",
          "type": "string"
        }
      ],
      "payable": false,
      "stateMutability": "view",
      "type": "function"
    },
    {
      "constant": true,
      "inputs": [
        {
          "internalType": "address payable",
          "name": "_donor",
          "type": "address"
        }
      ],
      "name": "getDbags",
      "outputs": [
        {
          "internalType": "uint256[]",
          "name": "",
          "type": "uint256[]"
        }
      ],
      "payable": false,
      "stateMutability": "view",
      "type": "function"
    },
    {
      "constant": true,
      "inputs": [
        {
          "internalType": "address payable",
          "name": "_donor",
          "type": "address"
        }
      ],
      "name": "getNotification",
      "outputs": [
        {
          "internalType": "uint256[]",
          "name": "",
          "type": "uint256[]"
        }
      ],
      "payable": false,
      "stateMutability": "view",
      "type": "function"
    },
    {
      "constant": true,
      "inputs": [
        {
          "internalType": "address payable",
          "name": "_hospital",
          "type": "address"
        }
      ],
      "name": "getHbags",
      "outputs": [
        {
          "internalType": "uint256[]",
          "name": "",
          "type": "uint256[]"
        }
      ],
      "payable": false,
      "stateMutability": "view",
      "type": "function"
    },
    {
      "constant": false,
      "inputs": [
        {
          "internalType": "uint256",
          "name": "_donation_date",
          "type": "uint256"
        },
        {
          "internalType": "address payable",
          "name": "_donor",
          "type": "address"
        },
        {
          "internalType": "string",
          "name": "_donor_name",
          "type": "string"
        },
        {
          "internalType": "string",
          "name": "_donor_number",
          "type": "string"
        },
        {
          "internalType": "string",
          "name": "_blood_group",
          "type": "string"
        },
        {
          "internalType": "uint256",
          "name": "_expiry",
          "type": "uint256"
        },
        {
          "internalType": "string",
          "name": "_city",
          "type": "string"
        }
      ],
      "name": "createBloodbag",
      "outputs": [],
      "payable": false,
      "stateMutability": "nonpayable",
      "type": "function"
    },
    {
      "constant": false,
      "inputs": [
        {
          "internalType": "address payable",
          "name": "_bank",
          "type": "address"
        },
        {
          "internalType": "string",
          "name": "_name",
          "type": "string"
        },
        {
          "internalType": "string",
          "name": "_city",
          "type": "string"
        }
      ],
      "name": "createBank",
      "outputs": [
        {
          "internalType": "string",
          "name": "",
          "type": "string"
        }
      ],
      "payable": false,
      "stateMutability": "nonpayable",
      "type": "function"
    },
    {
      "constant": false,
      "inputs": [
        {
          "internalType": "address payable",
          "name": "_hosp",
          "type": "address"
        },
        {
          "internalType": "string",
          "name": "_name",
          "type": "string"
        },
        {
          "internalType": "string",
          "name": "_city",
          "type": "string"
        }
      ],
      "name": "createHosp",
      "outputs": [],
      "payable": false,
      "stateMutability": "nonpayable",
      "type": "function"
    },
    {
      "constant": false,
      "inputs": [
        {
          "internalType": "uint256",
          "name": "bag_id",
          "type": "uint256"
        }
      ],
      "name": "h_placeOrder",
      "outputs": [],
      "payable": true,
      "stateMutability": "payable",
      "type": "function"
    },
    {
      "constant": false,
      "inputs": [
        {
          "internalType": "uint256",
          "name": "bag_id",
          "type": "uint256"
        },
        {
          "internalType": "string",
          "name": "h_name",
          "type": "string"
        },
        {
          "internalType": "uint256",
          "name": "h_number",
          "type": "uint256"
        },
        {
          "internalType": "string",
          "name": "newuser_name",
          "type": "string"
        },
        {
          "internalType": "uint256",
          "name": "newuser_number",
          "type": "uint256"
        },
        {
          "internalType": "string",
          "name": "date",
          "type": "string"
        },
        {
          "internalType": "string",
          "name": "newuser_email",
          "type": "string"
        },
        {
          "internalType": "string",
          "name": "amount_blood",
          "type": "string"
        },
        {
          "internalType": "string",
          "name": "city",
          "type": "string"
        }
      ],
      "name": "useBag",
      "outputs": [],
      "payable": true,
      "stateMutability": "payable",
      "type": "function"
    },
    {
      "constant": false,
      "inputs": [],
      "name": "gotIt",
      "outputs": [],
      "payable": false,
      "stateMutability": "nonpayable",
      "type": "function"
    },
    {
      "constant": false,
      "inputs": [
        {
          "internalType": "uint256[]",
          "name": "ids",
          "type": "uint256[]"
        },
        {
          "internalType": "uint256",
          "name": "s",
          "type": "uint256"
        }
      ],
      "name": "expiredBag",
      "outputs": [
        {
          "internalType": "uint256",
          "name": "",
          "type": "uint256"
        }
      ],
      "payable": false,
      "stateMutability": "nonpayable",
      "type": "function"
    }
  ],
  "bytecode": "0x6080604052737ddb03275288b2545f49d2e0a1a45d6b444613366000806101000a81548173ffffffffffffffffffffffffffffffffffffffff021916908373ffffffffffffffffffffffffffffffffffffffff160217905550737ddb03275288b2545f49d2e0a1a45d6b44461336600160006101000a81548173ffffffffffffffffffffffffffffffffffffffff021916908373ffffffffffffffffffffffffffffffffffffffff16021790555060006003556000600455348015620000c457600080fd5b506040518060400160405280600481526020017f416d616e000000000000000000000000000000000000000000000000000000008152506002908051906020019062000112929190620005f4565b506004600081548092919060010191905055506040518061010001604052806004548152602001600e81526020016040518060400160405280600581526020017f41646d696e00000000000000000000000000000000000000000000000000000081525081526020016000809054906101000a900473ffffffffffffffffffffffffffffffffffffffff1673ffffffffffffffffffffffffffffffffffffffff1681526020016040518060400160405280600481526020017f416d616e0000000000000000000000000000000000000000000000000000000081525081526020016040518060200160405280600081525081526020016040518060200160405280600081525081526020016040518060400160405280600681526020017f4a61697075720000000000000000000000000000000000000000000000000000815250815250600860008060009054906101000a900473ffffffffffffffffffffffffffffffffffffffff1673ffffffffffffffffffffffffffffffffffffffff1673ffffffffffffffffffffffffffffffffffffffff16815260200190815260200160002060008201518160000155602082015181600101556040820151816002019080519060200190620002e89291906200067b565b5060608201518160030160006101000a81548173ffffffffffffffffffffffffffffffffffffffff021916908373ffffffffffffffffffffffffffffffffffffffff16021790555060808201518160040190805190602001906200034e9291906200067b565b5060a08201518160050190805190602001906200036d9291906200067b565b5060c08201518160060190805190602001906200038c9291906200067b565b5060e0820151816007019080519060200190620003ab9291906200067b565b509050506040518061010001604052806004548152602001600e81526020016040518060400160405280600581526020017f41646d696e00000000000000000000000000000000000000000000000000000081525081526020016000809054906101000a900473ffffffffffffffffffffffffffffffffffffffff1673ffffffffffffffffffffffffffffffffffffffff1681526020016040518060400160405280600481526020017f416d616e0000000000000000000000000000000000000000000000000000000081525081526020016040518060200160405280600081525081526020016040518060200160405280600081525081526020016040518060400160405280600681526020017f4a61697075720000000000000000000000000000000000000000000000000000815250815250600a6000600454815260200190815260200160002060008201518160000155602082015181600101556040820151816002019080519060200190620005279291906200067b565b5060608201518160030160006101000a81548173ffffffffffffffffffffffffffffffffffffffff021916908373ffffffffffffffffffffffffffffffffffffffff16021790555060808201518160040190805190602001906200058d9291906200067b565b5060a0820151816005019080519060200190620005ac9291906200067b565b5060c0820151816006019080519060200190620005cb9291906200067b565b5060e0820151816007019080519060200190620005ea9291906200067b565b509050506200072a565b828054600181600116156101000203166002900490600052602060002090601f016020900481019282601f106200063757805160ff191683800117855562000668565b8280016001018555821562000668579182015b82811115620006675782518255916020019190600101906200064a565b5b50905062000677919062000702565b5090565b828054600181600116156101000203166002900490600052602060002090601f016020900481019282601f10620006be57805160ff1916838001178555620006ef565b82800160010185558215620006ef579182015b82811115620006ee578251825591602001919060010190620006d1565b5b509050620006fe919062000702565b5090565b6200072791905b808211156200072357600081600090555060010162000709565b5090565b90565b61627b806200073a6000396000f3fe6080604052600436106101355760003560e01c80639715afe1116100ab578063bd6ea2741161006f578063bd6ea2741461150d578063e8c880b414611524578063f0e9955e1461154f578063f851a44014611747578063fb7d94291461179e578063fbe6f2e114611a5f57610135565b80639715afe114610f165780639b56f5f014610f85578063aabd2eb214610ff4578063ab2d4ebd1461109a578063adbcfe7e1461114057610135565b80634ea0738f116100fd5780634ea0738f146109a55780636edec91f146109d357806376147a0e14610cc757806379025c3a14610d3657806386f1daa714610e1957806389a57f8e14610e7057610135565b806306fdde031461013a57806307973ccf146101ca5780633164582e146101f5578063365b98b2146104b05780634309e4c614610755575b600080fd5b34801561014657600080fd5b5061014f611bde565b6040518080602001828103825283818151815260200191508051906020019080838360005b8381101561018f578082015181840152602081019050610174565b50505050905090810190601f1680156101bc5780820380516001836020036101000a031916815260200191505b509250505060405180910390f35b3480156101d657600080fd5b506101df611c7c565b6040518082815260200191505060405180910390f35b34801561020157600080fd5b506102446004803603602081101561021857600080fd5b81019080803573ffffffffffffffffffffffffffffffffffffffff169060200190929190505050611c82565b60405180898152602001888152602001806020018773ffffffffffffffffffffffffffffffffffffffff1673ffffffffffffffffffffffffffffffffffffffff1681526020018060200180602001806020018060200186810386528c818151815260200191508051906020019080838360005b838110156102d25780820151818401526020810190506102b7565b50505050905090810190601f1680156102ff5780820380516001836020036101000a031916815260200191505b5086810385528a818151815260200191508051906020019080838360005b8381101561033857808201518184015260208101905061031d565b50505050905090810190601f1680156103655780820380516001836020036101000a031916815260200191505b50868103845289818151815260200191508051906020019080838360005b8381101561039e578082015181840152602081019050610383565b50505050905090810190601f1680156103cb5780820380516001836020036101000a031916815260200191505b50868103835288818151815260200191508051906020019080838360005b838110156104045780820151818401526020810190506103e9565b50505050905090810190601f1680156104315780820380516001836020036101000a031916815260200191505b50868103825287818151815260200191508051906020019080838360005b8381101561046a57808201518184015260208101905061044f565b50505050905090810190601f1680156104975780820380516001836020036101000a031916815260200191505b509d505050505050505050505050505060405180910390f35b3480156104bc57600080fd5b506104e9600480360360208110156104d357600080fd5b8101908080359060200190929190505050611fe2565b60405180898152602001888152602001806020018773ffffffffffffffffffffffffffffffffffffffff1673ffffffffffffffffffffffffffffffffffffffff1681526020018060200180602001806020018060200186810386528c818151815260200191508051906020019080838360005b8381101561057757808201518184015260208101905061055c565b50505050905090810190601f1680156105a45780820380516001836020036101000a031916815260200191505b5086810385528a818151815260200191508051906020019080838360005b838110156105dd5780820151818401526020810190506105c2565b50505050905090810190601f16801561060a5780820380516001836020036101000a031916815260200191505b50868103845289818151815260200191508051906020019080838360005b83811015610643578082015181840152602081019050610628565b50505050905090810190601f1680156106705780820380516001836020036101000a031916815260200191505b50868103835288818151815260200191508051906020019080838360005b838110156106a957808201518184015260208101905061068e565b50505050905090810190601f1680156106d65780820380516001836020036101000a031916815260200191505b50868103825287818151815260200191508051906020019080838360005b8381101561070f5780820151818401526020810190506106f4565b50505050905090810190601f16801561073c5780820380516001836020036101000a031916815260200191505b509d505050505050505050505050505060405180910390f35b34801561076157600080fd5b5061078e6004803603602081101561077857600080fd5b8101908080359060200190929190505050612342565b604051808c81526020018b1515151581526020018a1515151581526020018981526020018873ffffffffffffffffffffffffffffffffffffffff1673ffffffffffffffffffffffffffffffffffffffff1681526020018773ffffffffffffffffffffffffffffffffffffffff1673ffffffffffffffffffffffffffffffffffffffff16815260200180602001868152602001806020018573ffffffffffffffffffffffffffffffffffffffff1673ffffffffffffffffffffffffffffffffffffffff16815260200180602001848103845289818151815260200191508051906020019080838360005b83811015610892578082015181840152602081019050610877565b50505050905090810190601f1680156108bf5780820380516001836020036101000a031916815260200191505b50848103835287818151815260200191508051906020019080838360005b838110156108f85780820151818401526020810190506108dd565b50505050905090810190601f1680156109255780820380516001836020036101000a031916815260200191505b50848103825285818151815260200191508051906020019080838360005b8381101561095e578082015181840152602081019050610943565b50505050905090810190601f16801561098b5780820380516001836020036101000a031916815260200191505b509e50505050505050505050505050505060405180910390f35b6109d1600480360360208110156109bb57600080fd5b81019080803590602001909291905050506125de565b005b3480156109df57600080fd5b50610a22600480360360208110156109f657600080fd5b81019080803573ffffffffffffffffffffffffffffffffffffffff169060200190929190505050612e8b565b6040518080602001898152602001806020018060200188815260200180602001806020018060200187810387528f818151815260200191508051906020019080838360005b83811015610a82578082015181840152602081019050610a67565b50505050905090810190601f168015610aaf5780820380516001836020036101000a031916815260200191505b5087810386528d818151815260200191508051906020019080838360005b83811015610ae8578082015181840152602081019050610acd565b50505050905090810190601f168015610b155780820380516001836020036101000a031916815260200191505b5087810385528c818151815260200191508051906020019080838360005b83811015610b4e578082015181840152602081019050610b33565b50505050905090810190601f168015610b7b5780820380516001836020036101000a031916815260200191505b5087810384528a818151815260200191508051906020019080838360005b83811015610bb4578082015181840152602081019050610b99565b50505050905090810190601f168015610be15780820380516001836020036101000a031916815260200191505b50878103835289818151815260200191508051906020019080838360005b83811015610c1a578082015181840152602081019050610bff565b50505050905090810190601f168015610c475780820380516001836020036101000a031916815260200191505b50878103825288818151815260200191508051906020019080838360005b83811015610c80578082015181840152602081019050610c65565b50505050905090810190601f168015610cad5780820380516001836020036101000a031916815260200191505b509e50505050505050505050505050505060405180910390f35b348015610cd357600080fd5b50610d2060048036036040811015610cea57600080fd5b81019080803573ffffffffffffffffffffffffffffffffffffffff16906020019092919080359060200190929190505050613263565b6040518082815260200191505060405180910390f35b348015610d4257600080fd5b50610e0360048036036040811015610d5957600080fd5b8101908080359060200190640100000000811115610d7657600080fd5b820183602082011115610d8857600080fd5b80359060200191846020830284011164010000000083111715610daa57600080fd5b919080806020026020016040519081016040528093929190818152602001838360200280828437600081840152601f19601f82011690508083019250505050505050919291929080359060200190929190505050613291565b6040518082815260200191505060405180910390f35b348015610e2557600080fd5b50610e2e613a38565b604051808273ffffffffffffffffffffffffffffffffffffffff1673ffffffffffffffffffffffffffffffffffffffff16815260200191505060405180910390f35b348015610e7c57600080fd5b50610ebf60048036036020811015610e9357600080fd5b81019080803573ffffffffffffffffffffffffffffffffffffffff169060200190929190505050613a5e565b6040518080602001828103825283818151815260200191508051906020019060200280838360005b83811015610f02578082015181840152602081019050610ee7565b505050509050019250505060405180910390f35b348015610f2257600080fd5b50610f6f60048036036040811015610f3957600080fd5b81019080803573ffffffffffffffffffffffffffffffffffffffff16906020019092919080359060200190929190505050613af5565b6040518082815260200191505060405180910390f35b348015610f9157600080fd5b50610fde60048036036040811015610fa857600080fd5b81019080803573ffffffffffffffffffffffffffffffffffffffff16906020019092919080359060200190929190505050613b23565b6040518082815260200191505060405180910390f35b34801561100057600080fd5b506110436004803603602081101561101757600080fd5b81019080803573ffffffffffffffffffffffffffffffffffffffff169060200190929190505050613b51565b6040518080602001828103825283818151815260200191508051906020019060200280838360005b8381101561108657808201518184015260208101905061106b565b505050509050019250505060405180910390f35b3480156110a657600080fd5b506110e9600480360360208110156110bd57600080fd5b81019080803573ffffffffffffffffffffffffffffffffffffffff169060200190929190505050613be8565b6040518080602001828103825283818151815260200191508051906020019060200280838360005b8381101561112c578082015181840152602081019050611111565b505050509050019250505060405180910390f35b61150b600480360361012081101561115757600080fd5b81019080803590602001909291908035906020019064010000000081111561117e57600080fd5b82018360208201111561119057600080fd5b803590602001918460018302840111640100000000831117156111b257600080fd5b91908080601f016020809104026020016040519081016040528093929190818152602001838380828437600081840152601f19601f820116905080830192505050505050509192919290803590602001909291908035906020019064010000000081111561121f57600080fd5b82018360208201111561123157600080fd5b8035906020019184600183028401116401000000008311171561125357600080fd5b91908080601f016020809104026020016040519081016040528093929190818152602001838380828437600081840152601f19601f82011690508083019250505050505050919291929080359060200190929190803590602001906401000000008111156112c057600080fd5b8201836020820111156112d257600080fd5b803590602001918460018302840111640100000000831117156112f457600080fd5b91908080601f016020809104026020016040519081016040528093929190818152602001838380828437600081840152601f19601f8201169050808301925050505050505091929192908035906020019064010000000081111561135757600080fd5b82018360208201111561136957600080fd5b8035906020019184600183028401116401000000008311171561138b57600080fd5b91908080601f016020809104026020016040519081016040528093929190818152602001838380828437600081840152601f19601f820116905080830192505050505050509192919290803590602001906401000000008111156113ee57600080fd5b82018360208201111561140057600080fd5b8035906020019184600183028401116401000000008311171561142257600080fd5b91908080601f016020809104026020016040519081016040528093929190818152602001838380828437600081840152601f19601f8201169050808301925050505050505091929192908035906020019064010000000081111561148557600080fd5b82018360208201111561149757600080fd5b803590602001918460018302840111640100000000831117156114b957600080fd5b91908080601f016020809104026020016040519081016040528093929190818152602001838380828437600081840152601f19601f820116905080830192505050505050509192919290505050613c7f565b005b34801561151957600080fd5b50611522614233565b005b34801561153057600080fd5b5061153961431d565b6040518082815260200191505060405180910390f35b34801561155b57600080fd5b506116cc6004803603606081101561157257600080fd5b81019080803573ffffffffffffffffffffffffffffffffffffffff169060200190929190803590602001906401000000008111156115af57600080fd5b8201836020820111156115c157600080fd5b803590602001918460018302840111640100000000831117156115e357600080fd5b91908080601f016020809104026020016040519081016040528093929190818152602001838380828437600081840152601f19601f8201169050808301925050505050505091929192908035906020019064010000000081111561164657600080fd5b82018360208201111561165857600080fd5b8035906020019184600183028401116401000000008311171561167a57600080fd5b91908080601f016020809104026020016040519081016040528093929190818152602001838380828437600081840152601f19601f820116905080830192505050505050509192919290505050614323565b6040518080602001828103825283818151815260200191508051906020019080838360005b8381101561170c5780820151818401526020810190506116f1565b50505050905090810190601f1680156117395780820380516001836020036101000a031916815260200191505b509250505060405180910390f35b34801561175357600080fd5b5061175c614a00565b604051808273ffffffffffffffffffffffffffffffffffffffff1673ffffffffffffffffffffffffffffffffffffffff16815260200191505060405180910390f35b3480156117aa57600080fd5b50611a5d600480360360e08110156117c157600080fd5b8101908080359060200190929190803573ffffffffffffffffffffffffffffffffffffffff1690602001909291908035906020019064010000000081111561180857600080fd5b82018360208201111561181a57600080fd5b8035906020019184600183028401116401000000008311171561183c57600080fd5b91908080601f016020809104026020016040519081016040528093929190818152602001838380828437600081840152601f19601f8201169050808301925050505050505091929192908035906020019064010000000081111561189f57600080fd5b8201836020820111156118b157600080fd5b803590602001918460018302840111640100000000831117156118d357600080fd5b91908080601f016020809104026020016040519081016040528093929190818152602001838380828437600081840152601f19601f8201169050808301925050505050505091929192908035906020019064010000000081111561193657600080fd5b82018360208201111561194857600080fd5b8035906020019184600183028401116401000000008311171561196a57600080fd5b91908080601f016020809104026020016040519081016040528093929190818152602001838380828437600081840152601f19601f82011690508083019250505050505050919291929080359060200190929190803590602001906401000000008111156119d757600080fd5b8201836020820111156119e957600080fd5b80359060200191846001830284011164010000000083111715611a0b57600080fd5b91908080601f016020809104026020016040519081016040528093929190818152602001838380828437600081840152601f19601f820116905080830192505050505050509192919290505050614a25565b005b348015611a6b57600080fd5b50611bdc60048036036060811015611a8257600080fd5b81019080803573ffffffffffffffffffffffffffffffffffffffff16906020019092919080359060200190640100000000811115611abf57600080fd5b820183602082011115611ad157600080fd5b80359060200191846001830284011164010000000083111715611af357600080fd5b91908080601f016020809104026020016040519081016040528093929190818152602001838380828437600081840152601f19601f82011690508083019250505050505050919291929080359060200190640100000000811115611b5657600080fd5b820183602082011115611b6857600080fd5b80359060200191846001830284011164010000000083111715611b8a57600080fd5b91908080601f016020809104026020016040519081016040528093929190818152602001838380828437600081840152601f19601f82011690508083019250505050505050919291929050505061598a565b005b60028054600181600116156101000203166002900480601f016020809104026020016040519081016040528092919081815260200182805460018160011615610100020316600290048015611c745780601f10611c4957610100808354040283529160200191611c74565b820191906000526020600020905b815481529060010190602001808311611c5757829003601f168201915b505050505081565b60045481565b6008602052806000526040600020600091509050806000015490806001015490806002018054600181600116156101000203166002900480601f016020809104026020016040519081016040528092919081815260200182805460018160011615610100020316600290048015611d3a5780601f10611d0f57610100808354040283529160200191611d3a565b820191906000526020600020905b815481529060010190602001808311611d1d57829003601f168201915b5050505050908060030160009054906101000a900473ffffffffffffffffffffffffffffffffffffffff1690806004018054600181600116156101000203166002900480601f016020809104026020016040519081016040528092919081815260200182805460018160011615610100020316600290048015611dfe5780601f10611dd357610100808354040283529160200191611dfe565b820191906000526020600020905b815481529060010190602001808311611de157829003601f168201915b505050505090806005018054600181600116156101000203166002900480601f016020809104026020016040519081016040528092919081815260200182805460018160011615610100020316600290048015611e9c5780601f10611e7157610100808354040283529160200191611e9c565b820191906000526020600020905b815481529060010190602001808311611e7f57829003601f168201915b505050505090806006018054600181600116156101000203166002900480601f016020809104026020016040519081016040528092919081815260200182805460018160011615610100020316600290048015611f3a5780601f10611f0f57610100808354040283529160200191611f3a565b820191906000526020600020905b815481529060010190602001808311611f1d57829003601f168201915b505050505090806007018054600181600116156101000203166002900480601f016020809104026020016040519081016040528092919081815260200182805460018160011615610100020316600290048015611fd85780601f10611fad57610100808354040283529160200191611fd8565b820191906000526020600020905b815481529060010190602001808311611fbb57829003601f168201915b5050505050905088565b600a602052806000526040600020600091509050806000015490806001015490806002018054600181600116156101000203166002900480601f01602080910402602001604051908101604052809291908181526020018280546001816001161561010002031660029004801561209a5780601f1061206f5761010080835404028352916020019161209a565b820191906000526020600020905b81548152906001019060200180831161207d57829003601f168201915b5050505050908060030160009054906101000a900473ffffffffffffffffffffffffffffffffffffffff1690806004018054600181600116156101000203166002900480601f01602080910402602001604051908101604052809291908181526020018280546001816001161561010002031660029004801561215e5780601f106121335761010080835404028352916020019161215e565b820191906000526020600020905b81548152906001019060200180831161214157829003601f168201915b505050505090806005018054600181600116156101000203166002900480601f0160208091040260200160405190810160405280929190818152602001828054600181600116156101000203166002900480156121fc5780601f106121d1576101008083540402835291602001916121fc565b820191906000526020600020905b8154815290600101906020018083116121df57829003601f168201915b505050505090806006018054600181600116156101000203166002900480601f01602080910402602001604051908101604052809291908181526020018280546001816001161561010002031660029004801561229a5780601f1061226f5761010080835404028352916020019161229a565b820191906000526020600020905b81548152906001019060200180831161227d57829003601f168201915b505050505090806007018054600181600116156101000203166002900480601f0160208091040260200160405190810160405280929190818152602001828054600181600116156101000203166002900480156123385780601f1061230d57610100808354040283529160200191612338565b820191906000526020600020905b81548152906001019060200180831161231b57829003601f168201915b5050505050905088565b60056020528060005260406000206000915090508060000154908060010160009054906101000a900460ff16908060010160019054906101000a900460ff16908060020154908060030160009054906101000a900473ffffffffffffffffffffffffffffffffffffffff16908060040160009054906101000a900473ffffffffffffffffffffffffffffffffffffffff1690806005018054600181600116156101000203166002900480601f01602080910402602001604051908101604052809291908181526020018280546001816001161561010002031660029004801561246c5780601f106124415761010080835404028352916020019161246c565b820191906000526020600020905b81548152906001019060200180831161244f57829003601f168201915b505050505090806006015490806007018054600181600116156101000203166002900480601f0160208091040260200160405190810160405280929190818152602001828054600181600116156101000203166002900480156125105780601f106124e557610100808354040283529160200191612510565b820191906000526020600020905b8154815290600101906020018083116124f357829003601f168201915b5050505050908060080160009054906101000a900473ffffffffffffffffffffffffffffffffffffffff1690806009018054600181600116156101000203166002900480601f0160208091040260200160405190810160405280929190818152602001828054600181600116156101000203166002900480156125d45780601f106125a9576101008083540402835291602001916125d4565b820191906000526020600020905b8154815290600101906020018083116125b757829003601f168201915b505050505090508b565b60006005600083815260200190815260200160002060080160009054906101000a900473ffffffffffffffffffffffffffffffffffffffff16905060006005600084815260200190815260200160002060010160009054906101000a900460ff16905060006005600085815260200190815260200160002060010160019054906101000a900460ff1690506003600860003373ffffffffffffffffffffffffffffffffffffffff1673ffffffffffffffffffffffffffffffffffffffff1681526020019081526020016000206001015414612704576040517f08c379a00000000000000000000000000000000000000000000000000000000081526004018080602001828103825260238152602001806162246023913960400191505060405180910390fd5b336005600086815260200190815260200160002060080160006101000a81548173ffffffffffffffffffffffffffffffffffffffff021916908373ffffffffffffffffffffffffffffffffffffffff160217905550600860003373ffffffffffffffffffffffffffffffffffffffff1673ffffffffffffffffffffffffffffffffffffffff1681526020019081526020016000206004016005600086815260200190815260200160002060070190805460018160011615610100020316600290046127d092919061602b565b50600860003373ffffffffffffffffffffffffffffffffffffffff1673ffffffffffffffffffffffffffffffffffffffff16815260200190815260200160002060070160056000868152602001908152602001600020600901908054600181600116156101000203166002900461284892919061602b565b506128516160b2565b6005600086815260200190815260200160002060405180610160016040529081600082015481526020016001820160009054906101000a900460ff161515151581526020016001820160019054906101000a900460ff16151515158152602001600282015481526020016003820160009054906101000a900473ffffffffffffffffffffffffffffffffffffffff1673ffffffffffffffffffffffffffffffffffffffff1673ffffffffffffffffffffffffffffffffffffffff1681526020016004820160009054906101000a900473ffffffffffffffffffffffffffffffffffffffff1673ffffffffffffffffffffffffffffffffffffffff1673ffffffffffffffffffffffffffffffffffffffff168152602001600582018054600181600116156101000203166002900480601f0160208091040260200160405190810160405280929190818152602001828054600181600116156101000203166002900480156129ff5780601f106129d4576101008083540402835291602001916129ff565b820191906000526020600020905b8154815290600101906020018083116129e257829003601f168201915b5050505050815260200160068201548152602001600782018054600181600116156101000203166002900480601f016020809104026020016040519081016040528092919081815260200182805460018160011615610100020316600290048015612aab5780601f10612a8057610100808354040283529160200191612aab565b820191906000526020600020905b815481529060010190602001808311612a8e57829003601f168201915b505050505081526020016008820160009054906101000a900473ffffffffffffffffffffffffffffffffffffffff1673ffffffffffffffffffffffffffffffffffffffff1673ffffffffffffffffffffffffffffffffffffffff168152602001600982018054600181600116156101000203166002900480601f016020809104026020016040519081016040528092919081815260200182805460018160011615610100020316600290048015612ba35780601f10612b7857610100808354040283529160200191612ba3565b820191906000526020600020905b815481529060010190602001808311612b8657829003601f168201915b5050505050815250509050600760003373ffffffffffffffffffffffffffffffffffffffff1673ffffffffffffffffffffffffffffffffffffffff168152602001908152602001600020816000015190806001815401808255809150509060018203906000526020600020016000909192909190915055507f70b58516acd4274e66d2d03c6417d4a154f3504ff2ded89a839cb2591544b90481600001518484846060015185608001518660a001518760c001518860e001518961010001518a61012001518b6101400151604051808c81526020018b1515151581526020018a1515151581526020018981526020018873ffffffffffffffffffffffffffffffffffffffff1673ffffffffffffffffffffffffffffffffffffffff1681526020018773ffffffffffffffffffffffffffffffffffffffff1673ffffffffffffffffffffffffffffffffffffffff16815260200180602001868152602001806020018573ffffffffffffffffffffffffffffffffffffffff1673ffffffffffffffffffffffffffffffffffffffff16815260200180602001848103845289818151815260200191508051906020019080838360005b83811015612d72578082015181840152602081019050612d57565b50505050905090810190601f168015612d9f5780820380516001836020036101000a031916815260200191505b50848103835287818151815260200191508051906020019080838360005b83811015612dd8578082015181840152602081019050612dbd565b50505050905090810190601f168015612e055780820380516001836020036101000a031916815260200191505b50848103825285818151815260200191508051906020019080838360005b83811015612e3e578082015181840152602081019050612e23565b50505050905090810190601f168015612e6b5780820380516001836020036101000a031916815260200191505b509e50505050505050505050505050505060405180910390a15050505050565b600b602052806000526040600020600091509050806000018054600181600116156101000203166002900480601f016020809104026020016040519081016040528092919081815260200182805460018160011615610100020316600290048015612f375780601f10612f0c57610100808354040283529160200191612f37565b820191906000526020600020905b815481529060010190602001808311612f1a57829003601f168201915b505050505090806001015490806002018054600181600116156101000203166002900480601f016020809104026020016040519081016040528092919081815260200182805460018160011615610100020316600290048015612fdb5780601f10612fb057610100808354040283529160200191612fdb565b820191906000526020600020905b815481529060010190602001808311612fbe57829003601f168201915b505050505090806003018054600181600116156101000203166002900480601f0160208091040260200160405190810160405280929190818152602001828054600181600116156101000203166002900480156130795780601f1061304e57610100808354040283529160200191613079565b820191906000526020600020905b81548152906001019060200180831161305c57829003601f168201915b505050505090806004015490806005018054600181600116156101000203166002900480601f01602080910402602001604051908101604052809291908181526020018280546001816001161561010002031660029004801561311d5780601f106130f25761010080835404028352916020019161311d565b820191906000526020600020905b81548152906001019060200180831161310057829003601f168201915b505050505090806006018054600181600116156101000203166002900480601f0160208091040260200160405190810160405280929190818152602001828054600181600116156101000203166002900480156131bb5780601f10613190576101008083540402835291602001916131bb565b820191906000526020600020905b81548152906001019060200180831161319e57829003601f168201915b505050505090806007018054600181600116156101000203166002900480601f0160208091040260200160405190810160405280929190818152602001828054600181600116156101000203166002900480156132595780601f1061322e57610100808354040283529160200191613259565b820191906000526020600020905b81548152906001019060200180831161323c57829003601f168201915b5050505050905088565b6009602052816000526040600020818154811061327c57fe5b90600052602060002001600091509150505481565b6000600e600860003373ffffffffffffffffffffffffffffffffffffffff1673ffffffffffffffffffffffffffffffffffffffff168152602001908152602001600020600101541461332e576040517f08c379a00000000000000000000000000000000000000000000000000000000081526004018080602001828103825260238152602001806162246023913960400191505060405180910390fd5b60008214156133a5576040517f08c379a000000000000000000000000000000000000000000000000000000000815260040180806020018281038252600f8152602001807f4e6f20457870697265642062616773000000000000000000000000000000000081525060200191505060405180910390fd5b6133ad6160b2565b60008090505b83811015613a2d576001600560008784815181106133cd57fe5b6020026020010151815260200190815260200160002060010160016101000a81548160ff02191690831515021790555060006005600087848151811061340f57fe5b6020026020010151815260200190815260200160002060010160006101000a81548160ff0219169083151502179055506005600086838151811061344f57fe5b6020026020010151815260200190815260200160002060405180610160016040529081600082015481526020016001820160009054906101000a900460ff161515151581526020016001820160019054906101000a900460ff16151515158152602001600282015481526020016003820160009054906101000a900473ffffffffffffffffffffffffffffffffffffffff1673ffffffffffffffffffffffffffffffffffffffff1673ffffffffffffffffffffffffffffffffffffffff1681526020016004820160009054906101000a900473ffffffffffffffffffffffffffffffffffffffff1673ffffffffffffffffffffffffffffffffffffffff1673ffffffffffffffffffffffffffffffffffffffff168152602001600582018054600181600116156101000203166002900480601f0160208091040260200160405190810160405280929190818152602001828054600181600116156101000203166002900480156136005780601f106135d557610100808354040283529160200191613600565b820191906000526020600020905b8154815290600101906020018083116135e357829003601f168201915b5050505050815260200160068201548152602001600782018054600181600116156101000203166002900480601f0160208091040260200160405190810160405280929190818152602001828054600181600116156101000203166002900480156136ac5780601f10613681576101008083540402835291602001916136ac565b820191906000526020600020905b81548152906001019060200180831161368f57829003601f168201915b505050505081526020016008820160009054906101000a900473ffffffffffffffffffffffffffffffffffffffff1673ffffffffffffffffffffffffffffffffffffffff1673ffffffffffffffffffffffffffffffffffffffff168152602001600982018054600181600116156101000203166002900480601f0160208091040260200160405190810160405280929190818152602001828054600181600116156101000203166002900480156137a45780601f10613779576101008083540402835291602001916137a4565b820191906000526020600020905b81548152906001019060200180831161378757829003601f168201915b50505050508152505091507fce038f74c8a3e3448a9a450dc7e0eb04d3e64f37b95ac4ccbf8af13ad2c0ddca826000015183602001518460400151856060015186608001518760a001518860c001518960e001518a61010001518b61012001518c6101400151604051808c81526020018b1515151581526020018a1515151581526020018981526020018873ffffffffffffffffffffffffffffffffffffffff1673ffffffffffffffffffffffffffffffffffffffff1681526020018773ffffffffffffffffffffffffffffffffffffffff1673ffffffffffffffffffffffffffffffffffffffff16815260200180602001868152602001806020018573ffffffffffffffffffffffffffffffffffffffff1673ffffffffffffffffffffffffffffffffffffffff16815260200180602001848103845289818151815260200191508051906020019080838360005b8381101561390e5780820151818401526020810190506138f3565b50505050905090810190601f16801561393b5780820380516001836020036101000a031916815260200191505b50848103835287818151815260200191508051906020019080838360005b83811015613974578082015181840152602081019050613959565b50505050905090810190601f1680156139a15780820380516001836020036101000a031916815260200191505b50848103825285818151815260200191508051906020019080838360005b838110156139da5780820151818401526020810190506139bf565b50505050905090810190601f168015613a075780820380516001836020036101000a031916815260200191505b509e50505050505050505050505050505060405180910390a180806001019150506133b3565b508291505092915050565b600160009054906101000a900473ffffffffffffffffffffffffffffffffffffffff1681565b6060600960008373ffffffffffffffffffffffffffffffffffffffff1673ffffffffffffffffffffffffffffffffffffffff168152602001908152602001600020805480602002602001604051908101604052809291908181526020018280548015613ae957602002820191906000526020600020905b815481526020019060010190808311613ad5575b50505050509050919050565b60076020528160005260406000208181548110613b0e57fe5b90600052602060002001600091509150505481565b60066020528160005260406000208181548110613b3c57fe5b90600052602060002001600091509150505481565b6060600760008373ffffffffffffffffffffffffffffffffffffffff1673ffffffffffffffffffffffffffffffffffffffff168152602001908152602001600020805480602002602001604051908101604052809291908181526020018280548015613bdc57602002820191906000526020600020905b815481526020019060010190808311613bc8575b50505050509050919050565b6060600660008373ffffffffffffffffffffffffffffffffffffffff1673ffffffffffffffffffffffffffffffffffffffff168152602001908152602001600020805480602002602001604051908101604052809291908181526020018280548015613c7357602002820191906000526020600020905b815481526020019060010190808311613c5f575b50505050509050919050565b6003600860003373ffffffffffffffffffffffffffffffffffffffff1673ffffffffffffffffffffffffffffffffffffffff1681526020019081526020016000206001015414613d1a576040517f08c379a00000000000000000000000000000000000000000000000000000000081526004018080602001828103825260238152602001806162246023913960400191505060405180910390fd5b6001600560008b815260200190815260200160002060010160006101000a81548160ff0219169083151502179055506000600560008b815260200190815260200160002060010160016101000a81548160ff0219169083151502179055506000600560008b815260200190815260200160002060030160009054906101000a900473ffffffffffffffffffffffffffffffffffffffff169050600960008273ffffffffffffffffffffffffffffffffffffffff1673ffffffffffffffffffffffffffffffffffffffff1681526020019081526020016000208a90806001815401808255809150509060018203906000526020600020016000909192909190915055506040518061010001604052808a815260200189815260200188815260200186815260200187815260200185815260200184815260200183815250600b60008373ffffffffffffffffffffffffffffffffffffffff1673ffffffffffffffffffffffffffffffffffffffff1681526020019081526020016000206000820151816000019080519060200190613eb1929190616152565b50602082015181600101556040820151816002019080519060200190613ed8929190616152565b506060820151816003019080519060200190613ef5929190616152565b506080820151816004015560a0820151816005019080519060200190613f1c929190616152565b5060c0820151816006019080519060200190613f39929190616152565b5060e0820151816007019080519060200190613f56929190616152565b509050507fddd424a5c439a23cdcefc0057878cc5c6a9447eac497dbef8054f20b1f5fe60a898989888a8989896040518080602001898152602001806020018060200188815260200180602001806020018060200187810387528f818151815260200191508051906020019080838360005b83811015613fe3578082015181840152602081019050613fc8565b50505050905090810190601f1680156140105780820380516001836020036101000a031916815260200191505b5087810386528d818151815260200191508051906020019080838360005b8381101561404957808201518184015260208101905061402e565b50505050905090810190601f1680156140765780820380516001836020036101000a031916815260200191505b5087810385528c818151815260200191508051906020019080838360005b838110156140af578082015181840152602081019050614094565b50505050905090810190601f1680156140dc5780820380516001836020036101000a031916815260200191505b5087810384528a818151815260200191508051906020019080838360005b838110156141155780820151818401526020810190506140fa565b50505050905090810190601f1680156141425780820380516001836020036101000a031916815260200191505b50878103835289818151815260200191508051906020019080838360005b8381101561417b578082015181840152602081019050614160565b50505050905090810190601f1680156141a85780820380516001836020036101000a031916815260200191505b50878103825288818151815260200191508051906020019080838360005b838110156141e15780820151818401526020810190506141c6565b50505050905090810190601f16801561420e5780820380516001836020036101000a031916815260200191505b509e50505050505050505050505050505060405180910390a150505050505050505050565b6001600860003373ffffffffffffffffffffffffffffffffffffffff1673ffffffffffffffffffffffffffffffffffffffff16815260200190815260200160002060010154146142ce576040517f08c379a00000000000000000000000000000000000000000000000000000000081526004018080602001828103825260238152602001806162246023913960400191505060405180910390fd5b6000600960003373ffffffffffffffffffffffffffffffffffffffff1673ffffffffffffffffffffffffffffffffffffffff1681526020019081526020016000208161431a91906161d2565b50565b60035481565b60606000809054906101000a900473ffffffffffffffffffffffffffffffffffffffff1673ffffffffffffffffffffffffffffffffffffffff163373ffffffffffffffffffffffffffffffffffffffff16146143e7576040517f08c379a000000000000000000000000000000000000000000000000000000000815260040180806020018281038252600c8152602001807f4e6f7420616e2061646d696e000000000000000000000000000000000000000081525060200191505060405180910390fd5b600073ffffffffffffffffffffffffffffffffffffffff168473ffffffffffffffffffffffffffffffffffffffff16141561448a576040517f08c379a000000000000000000000000000000000000000000000000000000000815260040180806020018281038252600f8152602001807f4e6f2062616e6b2061646472657373000000000000000000000000000000000081525060200191505060405180910390fd5b6000835111614501576040517f08c379a00000000000000000000000000000000000000000000000000000000081526004018080602001828103825260178152602001807f506c6573652070726f766964652042616e6b206e616d6500000000000000000081525060200191505060405180910390fd5b6000825111614578576040517f08c379a00000000000000000000000000000000000000000000000000000000081526004018080602001828103825260178152602001807f506c6573652070726f766964652043697479206e616d6500000000000000000081525060200191505060405180910390fd5b6002600860008673ffffffffffffffffffffffffffffffffffffffff1673ffffffffffffffffffffffffffffffffffffffff168152602001908152602001600020600101541415614631576040517f08c379a00000000000000000000000000000000000000000000000000000000081526004018080602001828103825260138152602001807f42616e6b20616c7265616479206578697374730000000000000000000000000081525060200191505060405180910390fd5b6004600081548092919060010191905055506040518061010001604052806004548152602001600281526020016040518060400160405280600481526020017f42616e6b0000000000000000000000000000000000000000000000000000000081525081526020018573ffffffffffffffffffffffffffffffffffffffff16815260200184815260200160405180602001604052806000815250815260200160405180602001604052806000815250815260200183815250600860008673ffffffffffffffffffffffffffffffffffffffff1673ffffffffffffffffffffffffffffffffffffffff16815260200190815260200160002060008201518160000155602082015181600101556040820151816002019080519060200190614758929190616152565b5060608201518160030160006101000a81548173ffffffffffffffffffffffffffffffffffffffff021916908373ffffffffffffffffffffffffffffffffffffffff16021790555060808201518160040190805190602001906147bc929190616152565b5060a08201518160050190805190602001906147d9929190616152565b5060c08201518160060190805190602001906147f6929190616152565b5060e0820151816007019080519060200190614813929190616152565b509050506040518061010001604052806004548152602001600281526020016040518060400160405280600481526020017f42616e6b0000000000000000000000000000000000000000000000000000000081525081526020018573ffffffffffffffffffffffffffffffffffffffff16815260200184815260200160405180602001604052806000815250815260200160405180602001604052806000815250815260200183815250600a6000600454815260200190815260200160002060008201518160000155602082015181600101556040820151816002019080519060200190614902929190616152565b5060608201518160030160006101000a81548173ffffffffffffffffffffffffffffffffffffffff021916908373ffffffffffffffffffffffffffffffffffffffff1602179055506080820151816004019080519060200190614966929190616152565b5060a0820151816005019080519060200190614983929190616152565b5060c08201518160060190805190602001906149a0929190616152565b5060e08201518160070190805190602001906149bd929190616152565b509050506040518060400160405280600781526020017f737563636573730000000000000000000000000000000000000000000000000081525090509392505050565b6000809054906101000a900473ffffffffffffffffffffffffffffffffffffffff1681565b60608590506002600860003373ffffffffffffffffffffffffffffffffffffffff1673ffffffffffffffffffffffffffffffffffffffff1681526020019081526020016000206001015414614ae2576040517f08c379a00000000000000000000000000000000000000000000000000000000081526004018080602001828103825260118152602001807f4e6f74206120626c6f6f642062616e6b2e00000000000000000000000000000081525060200191505060405180910390fd5b600081511415614bca57600860008873ffffffffffffffffffffffffffffffffffffffff1673ffffffffffffffffffffffffffffffffffffffff1681526020019081526020016000206004018054600181600116156101000203166002900480601f016020809104026020016040519081016040528092919081815260200182805460018160011615610100020316600290048015614bc25780601f10614b9757610100808354040283529160200191614bc2565b820191906000526020600020905b815481529060010190602001808311614ba557829003601f168201915b505050505090505b6000815111614c41576040517f08c379a00000000000000000000000000000000000000000000000000000000081526004018080602001828103825260118152602001807f506c6561736520696e707574206e616d6500000000000000000000000000000081525060200191505060405180910390fd5b6000845111614cb8576040517f08c379a00000000000000000000000000000000000000000000000000000000081526004018080602001828103825260148152602001807f6572726f7220696e20626c6f6f642067726f757000000000000000000000000081525060200191505060405180910390fd5b6000825111614d2f576040517f08c379a00000000000000000000000000000000000000000000000000000000081526004018080602001828103825260178152602001807f506c6573652070726f766964652043697479206e616d6500000000000000000081525060200191505060405180910390fd5b60008811614da5576040517f08c379a000000000000000000000000000000000000000000000000000000000815260040180806020018281038252600f8152602001807f6572726f7220696e20645f64617465000000000000000000000000000000000081525060200191505060405180910390fd5b878311614e1a576040517f08c379a00000000000000000000000000000000000000000000000000000000081526004018080602001828103825260118152602001807f6572726f7220696e206578705f6461746500000000000000000000000000000081525060200191505060405180910390fd5b600073ffffffffffffffffffffffffffffffffffffffff168773ffffffffffffffffffffffffffffffffffffffff161415614ebd576040517f08c379a000000000000000000000000000000000000000000000000000000000815260040180806020018281038252600e8152602001807f6572726f7220696e20646f6e6f7200000000000000000000000000000000000081525060200191505060405180910390fd5b6003600081548092919060010191905055506000600860008973ffffffffffffffffffffffffffffffffffffffff1673ffffffffffffffffffffffffffffffffffffffff16815260200190815260200160002060000154141561526f576004600081548092919060010191905055506040518061010001604052806004548152602001600181526020016040518060400160405280600581526020017f446f6e6f7200000000000000000000000000000000000000000000000000000081525081526020018873ffffffffffffffffffffffffffffffffffffffff16815260200182815260200186815260200185815260200183815250600860008973ffffffffffffffffffffffffffffffffffffffff1673ffffffffffffffffffffffffffffffffffffffff16815260200190815260200160002060008201518160000155602082015181600101556040820151816002019080519060200190615023929190616152565b5060608201518160030160006101000a81548173ffffffffffffffffffffffffffffffffffffffff021916908373ffffffffffffffffffffffffffffffffffffffff1602179055506080820151816004019080519060200190615087929190616152565b5060a08201518160050190805190602001906150a4929190616152565b5060c08201518160060190805190602001906150c1929190616152565b5060e08201518160070190805190602001906150de929190616152565b509050506040518061010001604052806004548152602001600181526020016040518060400160405280600581526020017f446f6e6f7200000000000000000000000000000000000000000000000000000081525081526020018873ffffffffffffffffffffffffffffffffffffffff16815260200182815260200186815260200185815260200183815250600a60006004548152602001908152602001600020600082015181600001556020820151816001015560408201518160020190805190602001906151af929190616152565b5060608201518160030160006101000a81548173ffffffffffffffffffffffffffffffffffffffff021916908373ffffffffffffffffffffffffffffffffffffffff1602179055506080820151816004019080519060200190615213929190616152565b5060a0820151816005019080519060200190615230929190616152565b5060c082015181600601908051906020019061524d929190616152565b5060e082015181600701908051906020019061526a929190616152565b509050505b6060600860003373ffffffffffffffffffffffffffffffffffffffff1673ffffffffffffffffffffffffffffffffffffffff1681526020019081526020016000206004018054600181600116156101000203166002900480601f0160208091040260200160405190810160405280929190818152602001828054600181600116156101000203166002900480156153475780601f1061531c57610100808354040283529160200191615347565b820191906000526020600020905b81548152906001019060200180831161532a57829003601f168201915b505050505090506153566160b2565b60405180610160016040528060035481526020016000151581526020016000151581526020018b81526020018a73ffffffffffffffffffffffffffffffffffffffff1681526020013373ffffffffffffffffffffffffffffffffffffffff1681526020018781526020018681526020018381526020013373ffffffffffffffffffffffffffffffffffffffff168152602001600860003373ffffffffffffffffffffffffffffffffffffffff1673ffffffffffffffffffffffffffffffffffffffff1681526020019081526020016000206007018054600181600116156101000203166002900480601f0160208091040260200160405190810160405280929190818152602001828054600181600116156101000203166002900480156154be5780601f10615493576101008083540402835291602001916154be565b820191906000526020600020905b8154815290600101906020018083116154a157829003601f168201915b50505050508152509050806005600060035481526020019081526020016000206000820151816000015560208201518160010160006101000a81548160ff02191690831515021790555060408201518160010160016101000a81548160ff0219169083151502179055506060820151816002015560808201518160030160006101000a81548173ffffffffffffffffffffffffffffffffffffffff021916908373ffffffffffffffffffffffffffffffffffffffff16021790555060a08201518160040160006101000a81548173ffffffffffffffffffffffffffffffffffffffff021916908373ffffffffffffffffffffffffffffffffffffffff16021790555060c08201518160050190805190602001906155dc929190616152565b5060e08201518160060155610100820151816007019080519060200190615604929190616152565b506101208201518160080160006101000a81548173ffffffffffffffffffffffffffffffffffffffff021916908373ffffffffffffffffffffffffffffffffffffffff16021790555061014082015181600901908051906020019061566a929190616152565b50905050600660008a73ffffffffffffffffffffffffffffffffffffffff1673ffffffffffffffffffffffffffffffffffffffff168152602001908152602001600020816000015190806001815401808255809150509060018203906000526020600020016000909192909190915055507f0c535c8da6e77b95970bf09ec33604331b1ffc56c34733ae0a9122d8e55443a46003546000808d8d338c8c8a33600860003373ffffffffffffffffffffffffffffffffffffffff1673ffffffffffffffffffffffffffffffffffffffff168152602001908152602001600020600701604051808c81526020018b1515151581526020018a1515151581526020018981526020018873ffffffffffffffffffffffffffffffffffffffff1673ffffffffffffffffffffffffffffffffffffffff1681526020018773ffffffffffffffffffffffffffffffffffffffff1673ffffffffffffffffffffffffffffffffffffffff16815260200180602001868152602001806020018573ffffffffffffffffffffffffffffffffffffffff1673ffffffffffffffffffffffffffffffffffffffff16815260200180602001848103845289818151815260200191508051906020019080838360005b8381101561584f578082015181840152602081019050615834565b50505050905090810190601f16801561587c5780820380516001836020036101000a031916815260200191505b50848103835287818151815260200191508051906020019080838360005b838110156158b557808201518184015260208101905061589a565b50505050905090810190601f1680156158e25780820380516001836020036101000a031916815260200191505b508481038252858181546001816001161561010002031660029004815260200191508054600181600116156101000203166002900480156159645780601f1061593957610100808354040283529160200191615964565b820191906000526020600020905b81548152906001019060200180831161594757829003601f168201915b50509e50505050505050505050505050505060405180910390a150505050505050505050565b6000809054906101000a900473ffffffffffffffffffffffffffffffffffffffff1673ffffffffffffffffffffffffffffffffffffffff163373ffffffffffffffffffffffffffffffffffffffff1614615a4c576040517f08c379a000000000000000000000000000000000000000000000000000000000815260040180806020018281038252600c8152602001807f4e6f7420616e2061646d696e000000000000000000000000000000000000000081525060200191505060405180910390fd5b600073ffffffffffffffffffffffffffffffffffffffff168373ffffffffffffffffffffffffffffffffffffffff161415615aef576040517f08c379a000000000000000000000000000000000000000000000000000000000815260040180806020018281038252600f8152602001807f4e6f20686f73702061646472657373000000000000000000000000000000000081525060200191505060405180910390fd5b6000825111615b66576040517f08c379a000000000000000000000000000000000000000000000000000000000815260040180806020018281038252601b8152602001807f506c6573652070726f7669646520486f73706974616c206e616d65000000000081525060200191505060405180910390fd5b6000815111615bdd576040517f08c379a00000000000000000000000000000000000000000000000000000000081526004018080602001828103825260178152602001807f506c6573652070726f766964652043697479206e616d6500000000000000000081525060200191505060405180910390fd5b6003600860008573ffffffffffffffffffffffffffffffffffffffff1673ffffffffffffffffffffffffffffffffffffffff168152602001908152602001600020600101541415615c96576040517f08c379a00000000000000000000000000000000000000000000000000000000081526004018080602001828103825260178152602001807f486f73706974616c20416c72656164792065786973747300000000000000000081525060200191505060405180910390fd5b6004600081548092919060010191905055506040518061010001604052806004548152602001600381526020016040518060400160405280600881526020017f486f73706974616c00000000000000000000000000000000000000000000000081525081526020018473ffffffffffffffffffffffffffffffffffffffff16815260200183815260200160405180602001604052806000815250815260200160405180602001604052806000815250815260200182815250600860008573ffffffffffffffffffffffffffffffffffffffff1673ffffffffffffffffffffffffffffffffffffffff16815260200190815260200160002060008201518160000155602082015181600101556040820151816002019080519060200190615dbd929190616152565b5060608201518160030160006101000a81548173ffffffffffffffffffffffffffffffffffffffff021916908373ffffffffffffffffffffffffffffffffffffffff1602179055506080820151816004019080519060200190615e21929190616152565b5060a0820151816005019080519060200190615e3e929190616152565b5060c0820151816006019080519060200190615e5b929190616152565b5060e0820151816007019080519060200190615e78929190616152565b509050506040518061010001604052806004548152602001600381526020016040518060400160405280600881526020017f486f73706974616c00000000000000000000000000000000000000000000000081525081526020018473ffffffffffffffffffffffffffffffffffffffff16815260200183815260200160405180602001604052806000815250815260200160405180602001604052806000815250815260200182815250600a6000600454815260200190815260200160002060008201518160000155602082015181600101556040820151816002019080519060200190615f67929190616152565b5060608201518160030160006101000a81548173ffffffffffffffffffffffffffffffffffffffff021916908373ffffffffffffffffffffffffffffffffffffffff1602179055506080820151816004019080519060200190615fcb929190616152565b5060a0820151816005019080519060200190615fe8929190616152565b5060c0820151816006019080519060200190616005929190616152565b5060e0820151816007019080519060200190616022929190616152565b50905050505050565b828054600181600116156101000203166002900490600052602060002090601f016020900481019282601f1061606457805485556160a1565b828001600101855582156160a157600052602060002091601f016020900482015b828111156160a0578254825591600101919060010190616085565b5b5090506160ae91906161fe565b5090565b6040518061016001604052806000815260200160001515815260200160001515815260200160008152602001600073ffffffffffffffffffffffffffffffffffffffff168152602001600073ffffffffffffffffffffffffffffffffffffffff168152602001606081526020016000815260200160608152602001600073ffffffffffffffffffffffffffffffffffffffff168152602001606081525090565b828054600181600116156101000203166002900490600052602060002090601f016020900481019282601f1061619357805160ff19168380011785556161c1565b828001600101855582156161c1579182015b828111156161c05782518255916020019190600101906161a5565b5b5090506161ce91906161fe565b5090565b8154818355818111156161f9578183600052602060002091820191016161f891906161fe565b5b505050565b61622091905b8082111561621c576000816000905550600101616204565b5090565b9056fe556e617574686f72697a6564207472616e73616374696f6e206f726967696e61746f72a265627a7a72315820c611e16064b66961aedd57537d5c4c4a37bde2aee705092a769abdcdb1489a9764736f6c63430005100032",
  "source": "pragma solidity >=0.4.21 <0.6.0;\n\n// contract DateTime {\n//         function getYear(uint timestamp) public returns (uint16);\n//         function getMonth(uint timestamp) public returns (uint8);\n//         function getDay(uint timestamp) public returns (uint8);\n// }\n\ncontract Blood{\n    // uint public today;\n    // address public dateTimeAddr = 0x66eDEfff0A0c87bA4ca2b8E73BB05787eb35908E;\n    address payable public admin = address(0x7dDB03275288B2545F49d2E0A1A45D6B44461336);\n    address payable public hospi = address(0x7dDB03275288B2545F49d2E0A1A45D6B44461336);\n    // DateTime dateTime = DateTime(dateTimeAddr);\n    string public name;\n    uint public bagCount = 0;\n    uint public userCount = 0;\n    mapping(uint => Bloodbag) public bloodbags; // This is the general list of bloodbags.\n    mapping(address => uint[]) public donors; // Bloodbags corresponding to donors stored here.\n    mapping(address => uint[]) public hospitals; // Bloodbags corresponding to hospitals stored here.\n    mapping(address => User) public usertype; // This mapping is to identify the type of user using the website, i.e\n                                              // (1 = donor, 2 = bank and 3 = hospital)\n    mapping(address => uint[]) public notification; // Stores pending notification for used bags of donors\n    mapping(uint => User) public users; // List of all users\n    mapping(address => userAccept) public donorD1;\n    function getDbags(address payable _donor) public view returns (uint256[] memory) {\n        return donors[_donor];\n    }\n\n    function getNotification(address payable _donor) public view returns (uint256[] memory) {\n        return notification[_donor];\n    }\n\n    function getHbags(address payable _hospital) public view returns (uint256[] memory) {\n        return hospitals[_hospital];\n    }\n\n\n    // ALL STRUCTS\n\n    struct User {\n        uint id;\n        uint user_type;\n        string user;\n        address payable user_address;\n        string name;\n        string number;\n        string blood_group;\n        string city;\n    }\n    struct userAccept {\n        string hospital_name;\n        uint256 hospital_number;\n        string newuser_name;\n        string date;\n        uint256 newuserNumber;\n        string newuser_email;\n        string amountBlood;\n        string city;\n        \n    }\n    \n\n    struct Bloodbag {\n        uint id;\n        bool used;\n        bool expired;\n        uint donation_date;\n        address payable donor;\n        address payable bank;\n        string blood_group;\n        uint expiry;\n        string owner_name;\n        address payable owner;\n        string city;\n    }\n    \n\n    // ALL STRUCTS END\n\n    event BagCreated(\n        uint id,\n        bool used,\n        bool expired,\n        uint donation_date,\n        address payable donor,\n        address payable bank,\n        string blood_group,\n        uint expiry,\n        string owner_name,\n        address payable owner,\n        string city\n    );\n    event userAccepted (\n         string hospital_name,\n        uint256 hospital_number,\n        string newuser_name,\n        string date,\n        uint256 newuserNumber,\n        string newuser_email,\n        string amountBlood,\n        string city\n    );\n\n    event message(string message);\n    event arr(uint[] array);\n\n    event bagPurchased(\n        uint id,\n        bool used,\n        bool expired,\n        uint donation_date,\n        address payable donor,\n        address payable bank,\n        string blood_group,\n        uint expiry,\n        string owner_name,\n        address payable owner,\n        string city\n    );\n\n    event expBag(\n        uint id,\n        bool used,\n        bool expired,\n        uint donation_date,\n        address payable donor,\n        address payable bank,\n        string blood_group,\n        uint expiry,\n        string owner_name,\n        address payable owner,\n        string city\n    );\n\n    constructor() public{\n        name = \"Aman\";\n        userCount ++;\n        usertype[admin] = User(userCount, 14, \"Admin\", admin, \"Aman\", '', '', \"Jaipur\");\n        users[userCount] = User(userCount, 14, \"Admin\", admin, \"Aman\", '', '', \"Jaipur\");\n    }\n\n    function createBloodbag(uint _donation_date, address payable _donor, string memory _donor_name,\n     string memory _donor_number, string memory _blood_group, uint _expiry, string memory _city) public {\n        // Require valid params\n        string memory d_name = _donor_name;\n        require(usertype[msg.sender].user_type == 2, \"Not a blood bank.\");\n        if(bytes(d_name).length == 0){\n            d_name = usertype[_donor].name;\n        }\n        require(bytes(d_name).length > 0, \"Please input name\");\n        require(bytes(_blood_group).length > 0, \"error in blood group\");\n        require(bytes(_city).length > 0, \"Plese provide City name\");\n        require(_donation_date > 0, \"error in d_date\");\n        require(_expiry > _donation_date, \"error in exp_date\");\n        require(_donor != address(0), \"error in donor\");\n        // Increment bag count\n        bagCount ++;\n        // Date related stuff\n        // Add donor and set type = 1 if not already exists.\n        if (usertype[_donor].id == 0){\n            userCount++;\n            usertype[_donor] = User(userCount, 1, \"Donor\", _donor, d_name,_donor_number, _blood_group, _city);\n            users[userCount] = User(userCount, 1, \"Donor\", _donor, d_name, _donor_number, _blood_group, _city);\n        }\n        // Create the Blood bag\n        string memory _owner_name = usertype[msg.sender].name;\n        Bloodbag memory temp_bloodbag = Bloodbag(bagCount, false, false, _donation_date, _donor, msg.sender, _blood_group, _expiry,\n        _owner_name, msg.sender, usertype[msg.sender].city);\n        bloodbags[bagCount] = temp_bloodbag;\n        // add bag to specific donor's list\n        donors[_donor].push(temp_bloodbag.id);\n        // Trigger an event\n        emit BagCreated(bagCount, false, false, _donation_date, _donor, msg.sender, _blood_group, _expiry,\n        _owner_name, msg.sender, usertype[msg.sender].city);\n    }\n\n    function createBank(address payable _bank, string memory _name, string memory _city) public returns(string memory) {\n        require(msg.sender == admin,\"Not an admin\");\n        require(_bank != address(0),\"No bank address\");\n        require(bytes(_name).length > 0, \"Plese provide Bank name\");\n        require(bytes(_city).length > 0, \"Plese provide City name\");\n        require(usertype[_bank].user_type != 2,\"Bank already exists\");\n        userCount++;\n        usertype[_bank] = User(userCount, 2, \"Bank\",_bank, _name, '', '', _city);\n        users[userCount] = User(userCount, 2, \"Bank\",_bank, _name, '', '', _city);\n        return \"success\";\n    }\n\n    function createHosp(address payable _hosp, string memory _name, string memory _city) public {\n        require(msg.sender == admin,\"Not an admin\");\n        require(_hosp != address(0),\"No hosp address\");\n        require(bytes(_name).length > 0, \"Plese provide Hospital name\");\n        require(bytes(_city).length > 0, \"Plese provide City name\");\n        require(usertype[_hosp].user_type != 3,\"Hospital Already exists\");\n        userCount++;\n        usertype[_hosp] = User(userCount, 3, \"Hospital\",_hosp, _name, '', '', _city);\n        users[userCount] = User(userCount, 3, \"Hospital\", _hosp, _name, '', '', _city);\n    }\n\n    function h_placeOrder(uint bag_id) public payable {\n        // Fetch the owner\n        address payable _seller = bloodbags[bag_id].owner;\n        bool used = bloodbags[bag_id].used;\n        bool expired = bloodbags[bag_id].expired;\n        require(usertype[msg.sender].user_type == 3, 'Unauthorized transaction originator');\n        //Transfer ownership\n        bloodbags[bag_id].owner = msg.sender;\n        bloodbags[bag_id].owner_name = usertype[msg.sender].name;\n        bloodbags[bag_id].city = usertype[msg.sender].city;\n        Bloodbag memory _bloodbag = bloodbags[bag_id];\n        hospitals[msg.sender].push(_bloodbag.id);\n        emit bagPurchased(_bloodbag.id, used, expired, _bloodbag.donation_date, _bloodbag.donor, _bloodbag.bank,\n         _bloodbag.blood_group,_bloodbag.expiry,_bloodbag.owner_name,_bloodbag.owner, _bloodbag.city);\n    }\n\n    function useBag(\n     uint bag_id,\n     string memory h_name,\n     uint256 h_number ,\n     string memory newuser_name,\n     uint256 newuser_number,\n     string memory date,\n     string memory newuser_email,\n     string memory amount_blood,\n     string memory city\n      ) public payable {\n        require(usertype[msg.sender].user_type == 3, 'Unauthorized transaction originator');\n        bloodbags[bag_id].used = true;\n        bloodbags[bag_id].expired = false;\n        address donor = bloodbags[bag_id].donor;\n        notification[donor].push(bag_id);\n        donorD1[donor] = userAccept(h_name , h_number , newuser_name , date , newuser_number, newuser_email,amount_blood , city);\n        emit userAccepted(h_name , h_number , newuser_name , date , newuser_number, newuser_email,amount_blood , city);\n    }\n\n    function gotIt() public {\n        require(usertype[msg.sender].user_type == 1, 'Unauthorized transaction originator');\n        notification[msg.sender].length = 0;\n    }\n\n    function expiredBag(uint[] memory ids, uint s) public returns (uint) {\n        require(usertype[msg.sender].user_type == 14, 'Unauthorized transaction originator');\n        require(s != 0, 'No Expired bags');\n        Bloodbag memory _bloodbag;\n        for(uint i = 0; i < s; i++) {\n            bloodbags[ids[i]].expired = true;\n            bloodbags[ids[i]].used = false;\n            _bloodbag = bloodbags[ids[i]];\n            emit expBag(_bloodbag.id, _bloodbag.used, _bloodbag.expired, _bloodbag.donation_date, _bloodbag.donor, _bloodbag.bank,\n            _bloodbag.blood_group,_bloodbag.expiry,_bloodbag.owner_name,_bloodbag.owner, _bloodbag.city);\n        }\n        return s;\n    }\n}\n\n\n",
  "sourcePath": "/Users/lovepareek/hyperledger/dapps/pet-shop/custom_config/contracts/Adoption.sol",
  "compiler": {
    "name": "solc",
    "version": "0.5.16+commit.9c3226ce.Emscripten.clang"
  },
  "schemaVersion": "3.4.11",
  "updatedAt": "2023-03-19T23:29:59.786Z",
  "devdoc": {
    "methods": {}
  },
  "userdoc": {
    "methods": {}
  }
}